{
  "contractName": "NFTMarketplace",
  "abi": [
    {
      "inputs": [
        {
          "internalType": "string",
          "name": "_name",
          "type": "string"
        },
        {
          "internalType": "string",
          "name": "_symbol",
          "type": "string"
        }
      ],
      "stateMutability": "nonpayable",
      "type": "constructor"
    },
    {
      "inputs": [],
      "name": "name",
      "outputs": [
        {
          "internalType": "string",
          "name": "",
          "type": "string"
        }
      ],
      "stateMutability": "view",
      "type": "function",
      "constant": true
    },
    {
      "inputs": [],
      "name": "symbol",
      "outputs": [
        {
          "internalType": "string",
          "name": "",
          "type": "string"
        }
      ],
      "stateMutability": "view",
      "type": "function",
      "constant": true
    },
    {
      "inputs": [
        {
          "internalType": "string",
          "name": "_tokenUrl",
          "type": "string"
        }
      ],
      "name": "mint",
      "outputs": [
        {
          "internalType": "uint256",
          "name": "tokenID",
          "type": "uint256"
        }
      ],
      "stateMutability": "nonpayable",
      "type": "function"
    },
    {
      "inputs": [
        {
          "internalType": "uint256",
          "name": "_tokenId",
          "type": "uint256"
        },
        {
          "internalType": "uint256",
          "name": "_sellPrice",
          "type": "uint256"
        }
      ],
      "name": "setForSale",
      "outputs": [],
      "stateMutability": "nonpayable",
      "type": "function"
    },
    {
      "inputs": [
        {
          "internalType": "uint256",
          "name": "_tokenId",
          "type": "uint256"
        }
      ],
      "name": "buy",
      "outputs": [],
      "stateMutability": "payable",
      "type": "function",
      "payable": true
    },
    {
      "inputs": [
        {
          "internalType": "uint256",
          "name": "_tokenId",
          "type": "uint256"
        }
      ],
      "name": "getTokenPrice",
      "outputs": [
        {
          "internalType": "uint256",
          "name": "",
          "type": "uint256"
        }
      ],
      "stateMutability": "view",
      "type": "function",
      "constant": true
    },
    {
      "inputs": [
        {
          "internalType": "uint256",
          "name": "_tokenId",
          "type": "uint256"
        }
      ],
      "name": "getTokenUrl",
      "outputs": [
        {
          "internalType": "string",
          "name": "",
          "type": "string"
        }
      ],
      "stateMutability": "view",
      "type": "function",
      "constant": true
    },
    {
      "inputs": [
        {
          "internalType": "address",
          "name": "_newContractOwner",
          "type": "address"
        }
      ],
      "name": "changeContractOwner",
      "outputs": [],
      "stateMutability": "nonpayable",
      "type": "function"
    },
    {
      "inputs": [],
      "name": "getNumberOfTokens",
      "outputs": [
        {
          "internalType": "uint256",
          "name": "",
          "type": "uint256"
        }
      ],
      "stateMutability": "view",
      "type": "function",
      "constant": true
    },
    {
      "inputs": [
        {
          "internalType": "uint256",
          "name": "_tokenId",
          "type": "uint256"
        }
      ],
      "name": "getTokenOwner",
      "outputs": [
        {
          "internalType": "address",
          "name": "",
          "type": "address"
        }
      ],
      "stateMutability": "view",
      "type": "function",
      "constant": true
    }
  ],
  "bytecode": "0x60806040523480156200001157600080fd5b50604051620017d5380380620017d58339818101604052810190620000379190620002ff565b81600090805190602001906200004f929190620000b2565b50806001908051906020019062000068929190620000b2565b5033600260006101000a81548173ffffffffffffffffffffffffffffffffffffffff021916908373ffffffffffffffffffffffffffffffffffffffff1602179055505050620003e9565b828054620000c090620003b3565b90600052602060002090601f016020900481019282620000e4576000855562000130565b82601f10620000ff57805160ff191683800117855562000130565b8280016001018555821562000130579182015b828111156200012f57825182559160200191906001019062000112565b5b5090506200013f919062000143565b5090565b5b808211156200015e57600081600090555060010162000144565b5090565b6000604051905090565b600080fd5b600080fd5b600080fd5b600080fd5b6000601f19601f8301169050919050565b7f4e487b7100000000000000000000000000000000000000000000000000000000600052604160045260246000fd5b620001cb8262000180565b810181811067ffffffffffffffff82111715620001ed57620001ec62000191565b5b80604052505050565b60006200020262000162565b9050620002108282620001c0565b919050565b600067ffffffffffffffff82111562000233576200023262000191565b5b6200023e8262000180565b9050602081019050919050565b60005b838110156200026b5780820151818401526020810190506200024e565b838111156200027b576000848401525b50505050565b600062000298620002928462000215565b620001f6565b905082815260208101848484011115620002b757620002b66200017b565b5b620002c48482856200024b565b509392505050565b600082601f830112620002e457620002e362000176565b5b8151620002f684826020860162000281565b91505092915050565b600080604083850312156200031957620003186200016c565b5b600083015167ffffffffffffffff8111156200033a576200033962000171565b5b6200034885828601620002cc565b925050602083015167ffffffffffffffff8111156200036c576200036b62000171565b5b6200037a85828601620002cc565b9150509250929050565b7f4e487b7100000000000000000000000000000000000000000000000000000000600052602260045260246000fd5b60006002820490506001821680620003cc57607f821691505b60208210811415620003e357620003e262000384565b5b50919050565b6113dc80620003f96000396000f3fe6080604052600436106100915760003560e01c8063a5cd761f11610059578063a5cd761f1461017b578063c457fb37146101b8578063d85d3d27146101f5578063d96a094a14610232578063efeecb511461024e57610091565b806306fdde031461009657806317fcfe22146100c15780631d87b5d4146100ea5780633ead67b51461012757806395d89b4114610150575b600080fd5b3480156100a257600080fd5b506100ab610279565b6040516100b89190610b82565b60405180910390f35b3480156100cd57600080fd5b506100e860048036038101906100e39190610bee565b610307565b005b3480156100f657600080fd5b50610111600480360381019061010c9190610c2e565b61045d565b60405161011e9190610b82565b60405180910390f35b34801561013357600080fd5b5061014e60048036038101906101499190610cb9565b610508565b005b34801561015c57600080fd5b506101656105a6565b6040516101729190610b82565b60405180910390f35b34801561018757600080fd5b506101a2600480360381019061019d9190610c2e565b610634565b6040516101af9190610cf5565b60405180910390f35b3480156101c457600080fd5b506101df60048036038101906101da9190610c2e565b610671565b6040516101ec9190610d1f565b60405180910390f35b34801561020157600080fd5b5061021c60048036038101906102179190610e6f565b61068e565b6040516102299190610d1f565b60405180910390f35b61024c60048036038101906102479190610c2e565b6107cf565b005b34801561025a57600080fd5b50610263610a3c565b6040516102709190610d1f565b60405180910390f35b6000805461028690610ee7565b80601f01602080910402602001604051908101604052809291908181526020018280546102b290610ee7565b80156102ff5780601f106102d4576101008083540402835291602001916102ff565b820191906000526020600020905b8154815290600101906020018083116102e257829003601f168201915b505050505081565b6000811161034a576040517f08c379a000000000000000000000000000000000000000000000000000000000815260040161034190610f65565b60405180910390fd5b3373ffffffffffffffffffffffffffffffffffffffff166005600084815260200190815260200160002060009054906101000a900473ffffffffffffffffffffffffffffffffffffffff1673ffffffffffffffffffffffffffffffffffffffff16146103eb576040517f08c379a00000000000000000000000000000000000000000000000000000000081526004016103e290610ff7565b60405180910390fd5b6000600760008481526020019081526020016000205414610441576040517f08c379a000000000000000000000000000000000000000000000000000000000815260040161043890611063565b60405180910390fd5b8060076000848152602001908152602001600020819055505050565b6060600060066000848152602001908152602001600020805461047f90610ee7565b80601f01602080910402602001604051908101604052809291908181526020018280546104ab90610ee7565b80156104f85780601f106104cd576101008083540402835291602001916104f8565b820191906000526020600020905b8154815290600101906020018083116104db57829003601f168201915b5050505050905080915050919050565b600260009054906101000a900473ffffffffffffffffffffffffffffffffffffffff1673ffffffffffffffffffffffffffffffffffffffff163373ffffffffffffffffffffffffffffffffffffffff161461056257600080fd5b80600260006101000a81548173ffffffffffffffffffffffffffffffffffffffff021916908373ffffffffffffffffffffffffffffffffffffffff16021790555050565b600180546105b390610ee7565b80601f01602080910402602001604051908101604052809291908181526020018280546105df90610ee7565b801561062c5780601f106106015761010080835404028352916020019161062c565b820191906000526020600020905b81548152906001019060200180831161060f57829003601f168201915b505050505081565b60006005600083815260200190815260200160002060009054906101000a900473ffffffffffffffffffffffffffffffffffffffff169050919050565b600060076000838152602001908152602001600020549050919050565b60006004826040516106a091906110bf565b908152602001604051809103902060009054906101000a900460ff16156106fc576040517f08c379a00000000000000000000000000000000000000000000000000000000081526004016106f390611122565b60405180910390fd5b6003549050336005600083815260200190815260200160002060006101000a81548173ffffffffffffffffffffffffffffffffffffffff021916908373ffffffffffffffffffffffffffffffffffffffff1602179055508160066000838152602001908152602001600020908051906020019061077a929190610a46565b50600160048360405161078d91906110bf565b908152602001604051809103902060006101000a81548160ff021916908315150217905550600360008154809291906107c590611171565b9190505550919050565b6000600760008381526020019081526020016000205490506000811161082a576040517f08c379a000000000000000000000000000000000000000000000000000000000815260040161082190611206565b60405180910390fd5b8034101561086d576040517f08c379a000000000000000000000000000000000000000000000000000000000815260040161086490611298565b60405180910390fd5b60006005600084815260200190815260200160002060009054906101000a900473ffffffffffffffffffffffffffffffffffffffff16905060003390506000600260009054906101000a900473ffffffffffffffffffffffffffffffffffffffff169050600060646005866108e291906112b8565b6108ec9190611341565b9050336005600088815260200190815260200160002060006101000a81548173ffffffffffffffffffffffffffffffffffffffff021916908373ffffffffffffffffffffffffffffffffffffffff1602179055508434111561099b578273ffffffffffffffffffffffffffffffffffffffff166108fc863461096e9190611372565b9081150290604051600060405180830381858888f19350505050158015610999573d6000803e3d6000fd5b505b8173ffffffffffffffffffffffffffffffffffffffff166108fc829081150290604051600060405180830381858888f193505050501580156109e1573d6000803e3d6000fd5b508373ffffffffffffffffffffffffffffffffffffffff166108fc8287610a089190611372565b9081150290604051600060405180830381858888f19350505050158015610a33573d6000803e3d6000fd5b50505050505050565b6000600354905090565b828054610a5290610ee7565b90600052602060002090601f016020900481019282610a745760008555610abb565b82601f10610a8d57805160ff1916838001178555610abb565b82800160010185558215610abb579182015b82811115610aba578251825591602001919060010190610a9f565b5b509050610ac89190610acc565b5090565b5b80821115610ae5576000816000905550600101610acd565b5090565b600081519050919050565b600082825260208201905092915050565b60005b83811015610b23578082015181840152602081019050610b08565b83811115610b32576000848401525b50505050565b6000601f19601f8301169050919050565b6000610b5482610ae9565b610b5e8185610af4565b9350610b6e818560208601610b05565b610b7781610b38565b840191505092915050565b60006020820190508181036000830152610b9c8184610b49565b905092915050565b6000604051905090565b600080fd5b600080fd5b6000819050919050565b610bcb81610bb8565b8114610bd657600080fd5b50565b600081359050610be881610bc2565b92915050565b60008060408385031215610c0557610c04610bae565b5b6000610c1385828601610bd9565b9250506020610c2485828601610bd9565b9150509250929050565b600060208284031215610c4457610c43610bae565b5b6000610c5284828501610bd9565b91505092915050565b600073ffffffffffffffffffffffffffffffffffffffff82169050919050565b6000610c8682610c5b565b9050919050565b610c9681610c7b565b8114610ca157600080fd5b50565b600081359050610cb381610c8d565b92915050565b600060208284031215610ccf57610cce610bae565b5b6000610cdd84828501610ca4565b91505092915050565b610cef81610c7b565b82525050565b6000602082019050610d0a6000830184610ce6565b92915050565b610d1981610bb8565b82525050565b6000602082019050610d346000830184610d10565b92915050565b600080fd5b600080fd5b7f4e487b7100000000000000000000000000000000000000000000000000000000600052604160045260246000fd5b610d7c82610b38565b810181811067ffffffffffffffff82111715610d9b57610d9a610d44565b5b80604052505050565b6000610dae610ba4565b9050610dba8282610d73565b919050565b600067ffffffffffffffff821115610dda57610dd9610d44565b5b610de382610b38565b9050602081019050919050565b82818337600083830152505050565b6000610e12610e0d84610dbf565b610da4565b905082815260208101848484011115610e2e57610e2d610d3f565b5b610e39848285610df0565b509392505050565b600082601f830112610e5657610e55610d3a565b5b8135610e66848260208601610dff565b91505092915050565b600060208284031215610e8557610e84610bae565b5b600082013567ffffffffffffffff811115610ea357610ea2610bb3565b5b610eaf84828501610e41565b91505092915050565b7f4e487b7100000000000000000000000000000000000000000000000000000000600052602260045260246000fd5b60006002820490506001821680610eff57607f821691505b60208210811415610f1357610f12610eb8565b5b50919050565b7f496e76616c69642073656c6c696e672070726963650000000000000000000000600082015250565b6000610f4f601583610af4565b9150610f5a82610f19565b602082019050919050565b60006020820190508181036000830152610f7e81610f42565b9050919050565b7f4f6e6c7920746f6b656e206f776e6572732063616e2070757420746f6b656e7360008201527f20666f722073616c650000000000000000000000000000000000000000000000602082015250565b6000610fe1602983610af4565b9150610fec82610f85565b604082019050919050565b6000602082019050818103600083015261101081610fd4565b9050919050565b7f54686520746f6b656e20697320616c726561647920666f722073616c65000000600082015250565b600061104d601d83610af4565b915061105882611017565b602082019050919050565b6000602082019050818103600083015261107c81611040565b9050919050565b600081905092915050565b600061109982610ae9565b6110a38185611083565b93506110b3818560208601610b05565b80840191505092915050565b60006110cb828461108e565b915081905092915050565b7f5468697320746f6b656e20697320616c7265616479206d696e74656400000000600082015250565b600061110c601c83610af4565b9150611117826110d6565b602082019050919050565b6000602082019050818103600083015261113b816110ff565b9050919050565b7f4e487b7100000000000000000000000000000000000000000000000000000000600052601160045260246000fd5b600061117c82610bb8565b91507fffffffffffffffffffffffffffffffffffffffffffffffffffffffffffffffff8214156111af576111ae611142565b5b600182019050919050565b7f54686520746f6b656e206973206e6f7420666f722073616c6500000000000000600082015250565b60006111f0601983610af4565b91506111fb826111ba565b602082019050919050565b6000602082019050818103600083015261121f816111e3565b9050919050565b7f5468652070726f76696465642076616c756520697320696e737566666963696560008201527f6e74000000000000000000000000000000000000000000000000000000000000602082015250565b6000611282602283610af4565b915061128d82611226565b604082019050919050565b600060208201905081810360008301526112b181611275565b9050919050565b60006112c382610bb8565b91506112ce83610bb8565b9250817fffffffffffffffffffffffffffffffffffffffffffffffffffffffffffffffff048311821515161561130757611306611142565b5b828202905092915050565b7f4e487b7100000000000000000000000000000000000000000000000000000000600052601260045260246000fd5b600061134c82610bb8565b915061135783610bb8565b92508261136757611366611312565b5b828204905092915050565b600061137d82610bb8565b915061138883610bb8565b92508282101561139b5761139a611142565b5b82820390509291505056fea2646970667358221220b284f6dc15998e059c0adf5490bf6a6b90e37359d0bdc50230d39cd569ac995264736f6c634300080a0033",
  "immutableReferences": {},
  "source": "// SPDX-License-Identifier: MIT\npragma solidity >=0.8.4 <=0.8.10;\n\n\n/*\nIdeally We should be using some libraries for development of such contract, \nlike openzepplins ERC721 and ERC721Metadata extentions, Counter utility for counters,\n to make the contract as safe as possible, but using those will reduce the code we will write on our own,\n which defies the purpose why we are making this project.\n that is why I have decided to write all the code and not use any interface or contract extentions.\n */\n\ncontract NFTMarketplace {\n\n// name and symbol for the contract. \n    string public name;\n    string public symbol;\n \n//  owner of the contract who will be recieving the royalties for every sale made on this marketplace.\n// the owner is set as the msg.sender using the constructor.\n// and can be changed using changeContractOwner  function.\n    address private _owner;\n    \n    // counter to assign the tokenId for each new token minted;\n    uint counter;\n    \n    // this stores wether the metadata for the token  that is it's tokenURL is already minted or not\n    // it is useful to avoid same image or token to be minted twice.\n    mapping(string => bool) private _isTokenMinted;\n\n// mapps the tokenId to tokens owners and tokens urls [that is in our case the ipfs hash];\n    mapping(uint => address) private _owners;\n    mapping(uint => string) private _tokenUrls;\n    \n    // stores the prices for the tokens that are on sale\n   // if for any token, the price is 0 that means the token is not for sale\n    mapping(uint => uint) private _forSaleTokenPrices;\n    \n    // we set the name and symbol of the contract and also the msg.sender is autommatically saved as the owner of the contract.\n    constructor (string memory _name,string memory _symbol)  {\n        name = _name;\n        symbol = _symbol;\n        _owner = msg.sender;\n    }\n    \n    \n    // only owner modifier to prevent some functionality of the functions to be accessible onlt to the owner of the contract.\n    modifier onlyOwner () {\n        require(msg.sender == _owner);\n        _;\n    }\n    \n    \n\n    // only takes the token metadata the tokenId and tokenOwner is automatically set using counter and the transaction caller\n    function mint(string memory _tokenUrl) public returns(uint tokenID) {\n        \n        // this avoids duplicating the same tokenUrl to be minted more than once and assures the uniqness of the tokens.\n        require(!_isTokenMinted[_tokenUrl],\"This token is already minted\");\n\n        tokenID = counter;\n        _owners[tokenID] = msg.sender;\n        _tokenUrls[tokenID] = _tokenUrl;\n        _isTokenMinted[_tokenUrl] = true;\n\n        counter++;\n        return tokenID;\n    }\n    \n\n    // setting token for sale the price must be more than 0, and only owners can sell their token.\n    function setForSale(uint _tokenId,uint _sellPrice) public {\n        require(_sellPrice > 0,\"Invalid selling price\");\n        require(_owners[_tokenId] == msg.sender,\"Only token owners can put tokens for sale\");\n        require(_forSaleTokenPrices[_tokenId] == 0, \"The token is already for sale\");\n        \n        _forSaleTokenPrices[_tokenId] = _sellPrice;\n    }\n    \n    // to buy the token all the internal state changes are called first then the transfer functions\n    // are called to avoid reentrency.\n    function buy(uint _tokenId) public payable {\n        \n        uint _tokenPrice = _forSaleTokenPrices[_tokenId];\n        \n        require(_tokenPrice>0,\"The token is not for sale\");\n        require(msg.value >= _tokenPrice,\"The provided value is insufficient\");\n        \n        address payable _previousOwner = payable(_owners[_tokenId]);\n        address payable _newOwner = payable(msg.sender);\n        address payable _contractOwner = payable(_owner);\n        uint royalty = _tokenPrice * 5/100;\n        _owners[_tokenId] = msg.sender;\n        \n        if(msg.value > _tokenPrice) {\n            _newOwner.transfer(msg.value - _tokenPrice);\n        }\n        _contractOwner.transfer(royalty);\n        _previousOwner.transfer(_tokenPrice - royalty);\n        \n    }\n    \n    // returns the selling price of the token that is on sale\n    // if the token is not on sale it returns 0, insted of sending the error.\n    function getTokenPrice(uint _tokenId) public view  returns(uint) {\n         return  _forSaleTokenPrices[_tokenId];\n    }\n    \n\n    // returns the token url that is the ipfs hash of the token image\n    function getTokenUrl(uint _tokenId) public view returns(string memory) {\n       string memory tokenUrl = _tokenUrls[_tokenId];\n        return tokenUrl;\n    }\n    \n\n    // to change the contract owner. this address will be recieving the royalties for any sell made on this contract\n    function changeContractOwner(address _newContractOwner) public onlyOwner {\n        _owner = _newContractOwner;\n    }\n    \n\n    // returns the total number of the tokens minted \n    function getNumberOfTokens() public view returns(uint) {\n        return counter;\n    } \n\n    // returns the tokenOwner;\n    function getTokenOwner(uint _tokenId) public view returns(address) {\n        return _owners[_tokenId];\n    }\n\n } ",
  "sourcePath": "/home/substrate/Desktop/learn/nft_marketplace/contracts/NFTMarketplace.sol",
  "compiler": {
    "name": "solc",
    "version": "0.8.10+commit.fc410830.Emscripten.clang"
  },
  "schemaVersion": "3.4.3",
  "updatedAt": "2021-11-21T14:53:41.259Z",
  "networkType": "ethereum",
  "devdoc": {
    "kind": "dev",
    "methods": {},
    "version": 1
  },
  "userdoc": {
    "kind": "user",
    "methods": {},
    "version": 1
  }
}